:020000040802F0
:10000000088000206DC1030835C4030837C4030805
:1000100039C403083BC403083DC4030800000000C2
:1000200000000000000000000000000099B8020875
:100030003FC403080000000041B80208839C020886
:1000400001C7030805C7030809C703080DC703084C
:1000500011C7030815C7030819C703081DC70308FC
:1000600021C7030825C7030829C703082DC70308AC
:1000700031C7030835C7030839C703083DC703085C
:1000800041C7030845C7030849C703084DC703080C
:1000900051C7030855C7030859C703085DC70308BC
:1000A00061C7030865C7030869C703086DC703086C
:1000B000D552020881790308FD52020871C703086E
:1000C00075C7030879C703087DC7030881C70308FC
:1000D00085C70308857C020889C703089D6F03084C
:1000E0008DC7030891C7030895C703082553020865
:1000F0004D53020899C703089DC70308A1C7030809
:10010000A5C70308A9C703081F790308ADC70308DB
:10011000B1C70308B5C70308B9C70308B34D020840
:10012000CBD90208BDC70308C1C70308C5C7030868
:10013000C9C70308CDC70308D1C70308D5C703083B
:10014000D9C70308DDC70308E1C70308E5C70308EB
:10015000E9C70308EDC70308F1C70308F5C703089B
:10016000F9C70308FDC7030801C8030805C8030849
:1001700009C803080DC8030811C8030815C80308F7
:1001800019C803081DC803081D5C020821C803081C
:1001900025C8030829C803082DC8030831C8030867
:1001A000000000000000000035C8030808C44844EF
:1001B000A0AA484437914844BE774844565E484414
:1001C000EE444844852B48441D124844A4F8474453
:1001D0003BDF47441DC24944A8A649444C8F4944CB
:1001E000E37549447B5C494412434944AA29494484
:1001F00042104944D9F6484471DD484431C04A446C
:10020000C9A64A44608D4A44F8734A448F5A4A4406
:1002100027414A44BE274A44560E4A44EEF4494414
:1002200085DB494414BE4B44ACA44B44548B4B4433
:10023000EC714B4483584B442B3F4B44C3254B44F8
:100240005A0C4B44F2F24A449AD94A44F8BB4C4403
:100250008FA24C4437894C44CF6F4C4466564C4473
:100260000E3D4C44A6234C443D0A4C44D5F04B442F
:100270007DD74B44BAB94D4462A04D44FA864D44F3
:10028000A26D4D4439544D44E13A4D4479214D44D9
:1002900021084D44B8EE4C4460D54C445CB74E4404
:1002A000049E4E449C844E44446B4E44EC514E4458
:1002B00093384E442B1F4E44D3054E447BEC4D44A3
:1002C00012D34D44FEB44F44A69B4F443D824F444D
:1002D000E5684F448D4F4F4435364F44CD1C4F4455
:1002E00075034F441DEA4E44B4D04E447FB250448F
:1002F00027995044CF7F5044776650441F4D504457
:10030000C73350445E1A504406015044AEE74F4490
:1003100056CE4F44DFAF5144879651442F7D514410
:10032000D76351447F4A514437315144DF17514418
:1003300087FE50442FE55044D7CB50443FAD524444
:10034000E79352448F7A524437615244DF47524414
:10035000982E52443F155244E7FB51448FE25144DA
:1003600037C951447FAA534427915344DF775344FC
:10037000875E53442F455344E72B53448F12534415
:1003800037F95244DFDF524498C652449EA7544482
:10039000568E5444FE745444B65B54445E425444F6
:1003A00017295444BE0F544477F653441FDD534479
:1003B000D7C35344ACA45544758B55441D72554462
:1003C000D55855447D3F554435265544DD0C55449C
:1003D00096F354443DDA5444F6C05444AAA156441A
:1003E000628856440A6F5644C35556447B3C564473
:1003F00033235644DB09564493F055444CD75544B7
:10040000F4BD5544989E57443F855744086C574463
:10041000B05257446839574421205744D9065744AD
:1004200091ED564439D45644F2BA5644649B58442C
:100430001D825844D56858448D4F58444636584418
:10044000FE1C5844B60358446FEA574427D157441A
:10045000DFB7574421985944D97E5944916559448E
:100460004A4C594402335944CB19594483005944E6
:100470003BE75844F4CD5844ACB45844CD945A4466
:10048000857B5A443D625A4406495A44BE2F5A4419
:1004900077165A442FFD5944E7E35944A0CA5944FA
:1004A00068B1594468915B4421785B44E95E5B44E0
:1004B000A2455B445A2C5B4423135B44DBF95A444A
:1004C00093E05A444CC75A4414AE5A44E38D5C44FA
:1004D000AC745C44645B5C442D425C44E5285C4441
:1004E000AE0F5C4466F65B442FDD5B44E7C35B44C0
:1004F000B0AA5B444E8A5D4406715D44CF575D44AB
:10050000983E5D4450255D44190C5D44E1F25C4425
:100510009AD95C4462C05C441BA75C4498865E44E4
:10052000606D5E4429545E44E13A5E44AA215E4413
:1005300073085E443BEF5D4404D65D44BCBC5D443F
:1005400085A35D44D1825F449A695F4462505F44F1
:100550002B375F44F41D5F44BC045F4475EB5E447D
:100560003DD25E4406B95E44CF9F5E440A7F60443C
:10057000D36560449C4C6044643360442D1A6044ED
:10058000F6006044AEE75F4477CE5F443FB55F441A
:10059000089C5F44127B6144DB616144A448614470
:1005A0007D2F6144461661440EFD6044D7E36044EC
:1005B000A0CA604479B16044429860441B776244A9
:1005C000E35D6244AC446244852B62444E12624453
:1005D00017F96144DFDF6144A8C6614481AD61441D
:1005E0004A94614412736344DB596344B4406344E6
:1005F0007D276344460E63441FF56244E7DB624493
:10060000B0C2624479A9624452906244E96E644483
:10061000C35564448B3C6444642364442D0A64449D
:1006200006F16344CFD76344A8BE634471A5634415
:100630004A8C6344A06A65447951654442386544F4
:100640001B1F6544F4056544CDEC644496D36444B3
:100650006FBA644448A16444108864445666664492
:100660002F4D6644F8336644D11A6644AA016644A5
:1006700083E865444CCF654425B66544FE9C6544DB
:10068000C7836544FC616744D5486744AE2F67441F
:100690007716674450FD664429E4664402CB6644FD
:1006A000DBB16644A49866447D7F6644715D68440E
:1006B0004A446844232B6844FC116844D5F86744D5
:1006C000BEDF674498C6674471AD67444A94674487
:1006D000237B6744F6586944CF3F6944A8266944A0
:1006E000810D69445AF4684433DB68440CC26844A1
:1006F000E5A86844BE8F6844987668444A546A44C2
:10070000233B6A440C226A44E5086A44BEEF69440C
:10071000A8D6694481BD69445AA46944338B6944AD
:100720001D7269449E4F6B4477366B44601D6B4469
:1007300039046B4412EB6A44FCD16A44D5B86A446C
:10074000AE9F6A4487866A44716D6A44E14A6C448C
:10075000BA316C44A4186C447DFF6B4466E66B446C
:100760003FCD6B4419B46B44029B6B44DB816B44FB
:10077000C5686B4404466D44EE2C6D44C7136D444C
:10078000B0FA6C4489E16C4473C86C445CAF6C444F
:1007900035966C441F7D6C44F8636C4406416E448E
:1007A000F0276E44D90E6E44B2F56D449CDC6D4466
:1007B00085C36D446FAA6D4458916D4431786D4482
:1007C0001B5F6D44083C6F44F2226F44DB096F44A9
:1007D000B4F06E449ED76E4487BE6E4471A56E44DD
:1007E0005A8C6E4433736E441D5A6E44FA3670440C
:1007F000E31D7044CD047044B6EB6F44A0D26F4447
:1008000089B96F4462A06F444C876F44356E6F4462
:100810001F556F44DB317144C5187144AEFF7044FD
:1008200098E6704481CD70446AB47044549B70441F
:100830003D82704427697044105070449C2C72446F
:10084000851372446FFA714468E1714452C871446F
:100850003BAF7144259671440E7D71440864714428
:10086000F24A71444C277344350E73442FF5724499
:1008700019DC724402C37244FCA97244E5907244CC
:10088000CF777244B85E7244B2457244DB2174443F
:10089000D5087444BEEF7344B8D67344A2BD734404
:1008A0009CA47344858B73447F727344685973446A
:1008B000624073446A1C7544640375445EEA744480
:1008C00048D1744442B874442B9F744425867444C0
:1008D0000E6D744408547444F23A7444E916764434
:1008E000E3FD7544CDE47544C7CB7544C1B275448E
:1008F000AA997544A48075448D677544874E7544E4
:10090000713575444811774442F876443BDF7644AC
:1009100025C676441FAD764419947644127B7644FE
:100920000C627644F6487644F02F7644960B784471
:100930008FF2774489D9774483C077447DA7774481
:10094000778E7744607577445A5C77445443774494
:100950004E2A7744D3057944CDEC7844C7D3784404
:10096000C1BA7844BAA17844B4887844AE6F784468
:10097000A8567844A23D78449C24784400007A44E8
:1009800006197A440C327A44024B7A4408647A4459
:100990000E7D7A4414967A441BAF7A4410C87A4488
:1009A00017E17A441DFA7A4412137B44192C7B44D4
:1009B0001F457B44145E7B441B777B4421907B4422
:1009C00017A97B441DC27B4423DB7B4419F47B4481
:1009D0001F0D7C4414267C441B3F7C4421587C44DE
:1009E00017717C441D8A7C4412A37C4419BC7C444E
:1009F0000ED57C4414EE7C440A077D4410207D44CF
:100A000006397D440C527D44026B7D44F8837D445D
:100A1000FE9C7D44F4B57D44FACE7D44F0E77D44F0
:100A2000E5007E44EC197E44E1327E44D74B7E449F
:100A3000DD647E44D37D7E44C9967E44CFAF7E4440
:100A4000C5C87E44BAE17E44B0FA7E44B6137F4402
:100A5000AC2C7F44A2457F44985E7F448D777F44D1
:100A600093907F4489A97F447FC27F4475DB7F4494
:100A70006AF47F44B00680442B138044A61F804450
:100A8000292C8044A43880441F4580449A518044D6
:100A9000145E80448F6A80440A7780448583804452
:100AA000009080447B9C8044F6A8804471B58044CB
:100AB000ECC1804466CE8044E1DA804454E780444F
:100AC000CFF380444A008144C50C81443F198144DE
:100AD000BA25814435328144A83E8144234B814468
:100AE0009E5781441964814493708144067D8144FA
:100AF00081898144FC95814477A28144E9AE814497
:100B000064BB8144DFC781445AD48144CDE0814431
:100B100048ED8144C3F9814435068244B0128244D1
:100B2000231F82449E2B8244193882448B44824482
:100B300006518244795D8244F46982446F7682442E
:100B4000E18282445C8F8244CF9B82444AA88244E3
:100B5000BCB4824437C18244AACD82441DDA8244A7
:100B600098E682440AF3824485FF8244F80B83446A
:100B700073188344E524834458318344D33D83442C
:100B8000464A8344B85683442B638344A66F834408
:100B9000197C8344938883440695834479A18344D4
:100BA000ECAD834466BA8344D9C683444CD38344B2
:100BB000BEDF834431EC8344ACF883441F05844496
:100BC00091118444041E8444772A8444E936844481
:100BD0005C438444D74F84444A5C8444BC68844466
:100BE0002F758444A2818444148E8444879A84445B
:100BF000FAA684446DB38444DFBF844452CC844459
:100C0000C5D8844437E58444AAF184441DFE844455
:100C10008F0A85440217854475238544DF2F854458
:100C2000523C8544C548854437558544AA6185446E
:100C30001D6E85448F7A8544FA8685446D9385447C
:100C4000DF9F854452AC8544C5B885442FC5854493
:100C5000A2D1854414DE85447FEA8544F2F68544BA
:100C600064038644D70F8644421C8644B4288644D5
:100C70002735864491418644044E86446F5A864403
:100C8000E166864454738644BE7F8644318C864434
:100C90009C9886440EA5864479B18644ECBD864472
:100CA0005ECA8644C9D686443BE38644A6EF8644A2
:100CB00010FC864483088744EE14874460218744EF
:100CC000CB2D87443D3A8744A84687441253874436
:100CD000855F8744F06B874462788744CD8487447E
:100CE00037918744A29D874414AA87447FB68744DE
:100CF000E9C287445CCF8744C7DB874431E8874437
:100D00009CF487440E018844790D8844E319884493
:100D10004E268844B83288442B3F8844964B8844FA
:100D2000005888446A648844D57088443F7D88446C
:100D3000AA898844149688447FA28844F2AE8844E5
:100D40005CBB8844C7C7884431D488449CE088444D
:100D500006ED884471F98844DB05894446128944CC
:100D6000B01E89441B2B89447D378944E74389445D
:100D700052508944BC5C89442769894491758944EF
:100D8000FC818944668E8944D19A894433A7894479
:100D90009EB3894408C0894473CC8944DDD8894412
:100DA0003FE58944AAF1894414FE89447F0A8A44B4
:100DB000E1168A444C238A44B62F8A44213C8A4453
:100DC00083488A44EE548A4458618A44BA6D8A44FE
:100DD000257A8A4487868A44F2928A445C9F8A44B0
:100DE000BEAB8A4429B88A448BC48A44F6D08A446C
:100DF00058DD8A44C3E98A442DF68A448F028B4425
:100E0000FA0E8B445C1B8B44BE278B4429348B44E5
:100E10008B408B44F64C8B4458598B44C3658B44B0
:100E200025728B44877E8B44F28A8B4454978B4483
:100E3000BEA38B4421B08B4483BC8B44EEC88B444F
:100E400050D58B44B2E18B441DEE8B447FFA8B442A
:100E5000E1068C4444138C44AE1F8C44102C8C440B
:100E600073388C44D5448C4437518C44A25D8C44F7
:100E7000046A8C4466768C44C9828C442B8F8C44E3
:100E80008D9B8C44F0A78C445AB48C44BCC08C44D9
:100E90001FCD8C4481D98C44E3E58C4446F28C44CC
:100EA000A8FE8C440A0B8D446D178D44CF238D44CE
:100EB00031308D44933C8D44F6488D4458558D44D3
:100EC000BA618D441D6E8D447F7A8D44E1868D44D8
:100ED00044938D449E9F8D4400AC8D4462B88D44F4
:100EE000C5C48D4427D18D4489DD8D44E3E98D440B
:100EF00046F68D44A8028E440A0F8E446D1B8E4424
:100F0000C7278E4429348E448B408E44EE4C8E4449
:100F100048598E44AA658E440C728E44667E8E4477
:100F2000C98A8E442B978E4485A38E44E7AF8E44A6
:100F30004ABC8E44A4C88E4406D58E4460E18E44DB
:100F4000C3ED8E4425FA8E447F068F44E1128F4410
:100F50003B1F8F449E2B8F44F8378F445A448F4455
:100F6000B4508F44175D8F4471698F44CB758F44A3
:100F70002D828F44878E8F44E99A8F4444A78F44F3
:100F8000A6B38F4400C08F445ACC8F44BCD88F4442
:100F900017E58F4471F18F44D3FD8F442D0A90449F
:100FA00087169044E9229044442F90449E3B9044FD
:100FB000F84790445A549044B46090440E6D904465
:100FC00068799044C3859044259290447F9E9044D4
:100FD000D9AA904433B790448DC39044E7CF90444E
:100FE00042DC9044A4E89044FEF4904458019144BB
:100FF000B20D91440C1A914466269144C132914439
:101000001B3F9144754B9144CF57914429649144BF
:1010100083709144DD7C914437899144919591444A
:10102000ECA1914446AE914498BA9144F2C69144E1
:101030004CD39144A6DF914400EC91445AF891447A
:10104000B404924406119244601D9244BA29924419
:10105000143692446F429244C14E92441B5B9244B8
:1010600075679244CF739244218092447B8C924462
:10107000D598924427A5924481B19244DBBD924415
:101080002DCA924487D69244E1E2924433EF9244CF
:101090008DFB9244E707934439149344932093447F
:1010A000E52C93443F39934491459344EC51934448
:1010B0003D5E9344986A9344E97693444483934411
:1010C000968F9344F09B934442A893449CB49344DA
:1010D000EEC093443FCD93449AD99344ECE59344B6
:1010E00046F2934498FE9344E90A94444417944486
:1010F000962394441B339444423C94449348944430
:10110000E554944437619444916D9444E379944454
:101110003586944487929444E19E944433AB94443E
:1011200085B79444D7C3944429D094447BDC944439
:10113000D5E8944427F5944479019544CB0D954422
:101140001D1A95446F269544C1329544123F95442B
:10115000644B9544B6579544086495445A70954439
:10116000AC7C9544FE88954450959544A2A1954445
:10117000F4AD954446BA954498C69544E9D2954451
:101180003BDF95448DEB9544DFF79544310496445D
:1011900083109644CD1C96441F299644713596447D
:1011A000C3419644144E96445E5A9644B0669644A3
:1011B00002739644547F9644A68B9644F0979644C7
:1011C00042A4964493B09644DDBC96442FC99644FD
:1011D00081D59644CBE196441DEE96446FFA964431
:1011E000B80697440A1397445C1F9744A62B97446C
:1011F000F83797444244974493509744DD5C9744B2
:101200002F69974481759744CB8197441D8E9744ED
:10121000669A9744B8A6974402B397444CBF974444
:101220009ECB9744E7D79744D7E3974483F09744FE
:10123000D5FC97441F09984468159844BA219844EE
:10124000042E98444E3A9844A0469844E952984453
:10125000335F9844856B9844CF77984419849844B9
:101260006A909844B49C9844FEA8984448B5984421
:1012700091C19844E3CD98442DDA984477E6984498
:10128000C1F298440AFF98445C0B9944A61799440C
:10129000F023994439309944833C9944CD4899448A
:1012A0001755994460619944AA6D9944F479994419
:1012B0003D86994487929944D19E99441BAB9944A9
:1012C00064B79944AEC39944F8CF994442DC994439
:1012D0008BE89944D5F499441F019A44680D9A44C7
:1012E000B2199A44FC259A4446329A448F3E9A4455
:1012F000D14A9A441B579A4464639A44AE6F9A4405
:10130000F87B9A4439889A4483949A44CDA09A44AD
:1013100017AD9A4458B99A44A2C59A44ECD19A445C
:1013200035DE9A4477EA9A44C1F69A440A039B440C
:101330004C0F9B44961B9B44DF279B4421349B44CA
:10134000F6409B44AC4C9B44F6589B443F659B4401
:1013500081719B44CB7D9B440C8A9B4456969B4455
:1013600098A29B44E1AE9B4423BB9B446DC79B4426
:10137000AED39B44F8DF9B4439EC9B4483F89B44F9
:10138000C5049C440E119C44501D9C4491299C44CE
:10139000DB359C441D429C44664E9C44A85A9C44A8
:1013A000E9669C4433739C44757F9C44B68B9C4493
:1013B000F8979C4442A49C4483B09C44C5BC9C4484
:1013C0000EC99C4450D59C4491E19C44D3ED9C446F
:1013D00014FA9C445E069D44A0129D44E11E9D4467
:1013E000232B9D4464379D44A6439D44E74F9D4471
:1013F000315C9D4473689D44B4749D44F6809D4463
:10140000378D9D4479999D44BAA59D44FCB19D4476
:101410003DBE9D447FCA9D44C1D69D4402E39D4488
:1014200044EF9D4485FB9D44C7079E4408149E4499
:101430004A209E448B2C9E44CD389E4406459E44B3
:1014400048519E44895D9E44CB699E440C769E44DF
:101450004E829E448F8E9E44C99A9E440AA79E4403
:101460004CB39E448DBF9E44C7CB9E4408D89E4437
:101470004AE49E448BF09E44C5FC9E4406099F446A
:1014800048159F4489219F44C32D9F44043A9F449B
:101490003D469F447F529F44B85E9F44F26A9F44FA
:1014A0002B779F4464839F449E8F9F44D79B9F4488
:1014B00010A89F444AB49F4483C09F44EECC9F44ED
:1014C00027D99F4468E59F44A2F19F44E3FD9F44D0
:1014D0001D0AA0445E16A0449822A044D92EA04420
:1014E000123BA0444C47A0448D53A044C75FA04486
:1014F000086CA0444278A0447B84A044BC90A044E3
:10150000F69CA0442FA9A04471B5A044AAC1A04450
:10151000E3CDA0441DDAA0445EE6A04498F2A044C6
:10152000D1FEA0440A0BA1444C17A1448523A14439
:10153000BE2FA144F83BA1443148A1446A54A144C0
:10154000AC60A144E56CA1441F79A1445885A14435
:101550009191A144CB9DA14404AAA1443DB6A144CC
:1015600077C2A144B0CEA144E9DAA14423E7A14463
:101570005CF3A14496FFA144CF0BA2440818A244F7
:101580004224A2447B30A244B43CA244EE48A2448C
:101590002755A2446061A2449A6DA244D379A24423
:1015A0000486A2443D92A244779EA244B0AAA244DB
:1015B000E9B6A24423C3A24454CFA2448DDBA24483
:1015C000C7E7A24400F4A2443100A3446A0CA34438
:1015D000A418A344DD24A3440E31A344483DA344EE
:1015E0008149A344B255A344EC61A344256EA344AE
:1015F000567AA3448F86A344C192A344FA9EA3447F
:1016000033ABA34464B7A3449EC3A344CFCFA34446
:1016100008DCA344A4E8A34473F4A344A400A444B2
:10162000DD0CA4440E19A4444825A4447931A444F3
:10163000B23DA444E349A4441D56A4444E62A444CC
:101640007F6EA444B87AA444E986A4441B93A444BE
:10165000549FA44485ABA444BEB7A444F0C3A4449F
:1016600021D0A44452DCA4448BE8A444BCF4A44498
:10167000EE00A544270DA5445819A5448925A54485
:10168000BA31A544EC3DA5441D4AA5444E56A54497
:101690008762A544B86EA544E97AA5441B87A54492
:1016A0004C93A544859FA544B6ABA544E7B7A54494
:1016B00019C4A5444AD0A5447BDCA544ACE8A544A4
:1016C000DDF4A5440E01A6443F0DA6447119A644BD
:1016D000A225A644D331A644043EA644354AA644D6
:1016E0006656A6449862A644C96EA644FA7AA644F1
:1016F0002B87A6445493A644859FA644B6ABA64424
:10170000E7B7A64419C4A6444AD0A64473DCA6444D
:10171000A4E8A644D5F4A6440601A744370DA7447F
:101720006019A7449125A744C331A744EC3DA744C1
:101730001D4AA7444E56A7447F62A744A86EA744FB
:10174000D97AA7440A87A7443393A744649FA74440
:101750008DABA744BEB7A744F0C3A74419D0A74494
:101760004ADCA74473E8A744A4F4A744CD00A844E6
:10177000FE0CA8442719A8445825A8443D32A84483
:10178000B23DA844DB49A8440C56A8443562A8449D
:10179000666EA8448F7AA844C186A844E992A844FA
:1017A000129FA84444ABA8446DB7A84496C3A8446C
:1017B000C7CFA844F0DBA84419E8A8444AF4A844D9
:1017C0007300A9449C0CA944C518A944F624A94453
:1017D0001F31A944483DA9447149A944A255A944CF
:1017E000CB61A944F46DA9441D7AA9444686A94455
:1017F0007792A944A09EA944C9AAA944F2B6A944D3
:101800001BC3A94444CFA9446DDBA94496E7A9446E
:10181000BEF3A944E7FFA944100CAA443918AA440E
:101820006224AA448B30AA44B43CAA44DD48AA44AA
:101830000655AA442F61AA44586DAA448179AA4446
:10184000AA85AA44D391AA44FC9DAA4425AAAA44E5
:101850004EB6AA4477C2AA4498CEAA44C1DAAA4492
:10186000E9E6AA4412F3AA443BFFAA445C0BAB444A
:101870008517AB44AE23AB44D72FAB44003CAB44FD
:101880002148AB444A54AB447360AB44936CAB44C3
:10189000BC78AB44E584AB440691AB442F9DAB448C
:1018A00058A9AB4479B5AB44A2C1AB44CBCDAB4452
:1018B000ECD9AB4414E6AB4435F2AB445EFEAB442A
:1018C000870AAC44A816AC44D122AC44F22EAC44F6
:1018D0001B3BAC443B47AC446453AC44855FAC44D5
:1018E000AE6BAC44CF77AC44F083AC441990AC44BD
:1018F000399CAC4462A8AC4483B4AC44A4C0AC44AE
:10190000CDCCAC44EED8AC440EE5AC4437F1AC449D
:1019100058FDAC447909AD44A215AD44C321AD4492
:10192000E32DAD440C3AAD442D46AD444E52AD448A
:101930006F5EAD448F6AAD44B876AD44D982AD4494
:10194000FA8EAD441B9BAD443BA7AD4464B3AD449C
:1019500085BFAD44A6CBAD44C7D7AD44E7E3AD44A6
:1019600008F0AD4429FCAD444A08AE446A14AE44C4
:101970008B20AE44AC2CAE44CD38AE44EE44AE44E5
:101980000E51AE442F5DAE445069AE447175AE4405
:101990009181AE44B28DAE44D399AE44F4A5AE4429
:1019A00014B2AE4435BEAE4456CAAE4477D6AE4449
:1019B0008FE2AE44B0EEAE44D1FAAE44F206AF448C
:1019C0001213AF44331FAF444C2BAF446D37AF44B9
:1019D0008D43AF44AE4FAF44C75BAF44E767AF44FE
:1019E0000874AF442980AF44428CAF446298AF443E
:1019F00083A4AF449CB0AF44BCBCAF44DDC8AF448B
:101A0000F6D4AF4417E1AF442FEDAF4450F9AF44E3
:101A10007105B0448911B044AA1DB044C329B04433
:101A2000E335B044FC41B0441D4EB044355AB04497
:101A30005666B0446F72B0448F7EB044A88AB044FA
:101A4000C996B044E1A2B04402AFB0441BBBB0445D
:101A500033C7B04454D3B0446DDFB04485EBB044D9
:101A6000A6F7B044BE03B144D70FB144F81BB1444C
:101A70001028B1442934B1444A40B144624CB144C5
:101A80007B58B1449364B144B470B144CD7CB1444B
:101A9000E588B144FE94B14417A1B14437ADB144D7
:101AA00050B9B14468C5B14481D1B1449ADDB14463
:101AB000B2E9B144CBF5B144EC01B244040EB244F6
:101AC0001D1AB2443526B2444E32B244663EB24488
:101AD0007F4AB2449856B244B062B244C96EB2442E
:101AE000E17AB244FA86B2441293B2442B9FB244D4
:101AF00044ABB2445CB7B24475C3B24485CFB24480
:101B00009EDBB244B6E7B244CFF3B244E7FFB2443F
:101B1000000CB3441918B3442924B3444230B344ED
:101B20005A3CB3447348B3448B54B3449C60B344AD
:101B3000B46CB344CD78B344E584B344F690B34475
:101B40000E9DB34427A9B34437B5B34450C1B34441
:101B500068CDB34479D9B34491E5B344AAF1B34411
:101B6000BAFDB344D309B444E315B444FC21B444EE
:101B7000142EB444253AB4443D46B4444E52B444C1
:101B8000665EB444776AB4448F76B444A082B444A9
:101B9000B88EB444C99AB444E1A6B444F2B2B44491
:101BA00002BFB4441BCBB4442BD7B44444E3B44485
:101BB00054EFB44464FBB4447D07B5448D13B5447D
:101BC0009E1FB544B62BB544C737B544D743B5447B
:101BD000F04FB544005CB5441068B5442174B54479
:101BE0003980B5444A8CB5445A98B5446AA4B54482
:101BF0007BB0B54493BCB544A4C8B544B4D4B54493
:101C0000C5E0B544D5ECB544E5F8B544FE04B644AA
:101C10000E11B6441F1DB6442F29B6443F35B644B5
:101C20005041B644604DB6447159B6448165B644DE
:101C30009171B644A27DB644B289B644C395B64408
:101C4000D3A1B644E3ADB644F4B9B64404C6B64431
:101C500014D2B64425DEB64435EAB6443DF6B64461
:101C60004E02B7445E0EB7446F1AB7447F26B7449E
:101C70008F32B744983EB744A84AB744B856B744E1
:101C8000C962B744D96EB744E17AB744F286B74423
:101C90000293B744129FB7441BABB7442BB7B7446A
:101CA0003BC3B74444CFB74454DBB74464E7B744BD
:101CB0006DF3B7447DFFB7448D0BB8449617B84415
:101CC000A623B844AE2FB844BE3BB844C747B84477
:101CD000D753B844E75FB844F06BB8440078B844D1
:101CE0000884B8441990B844219CB84429A8B84441
:101CF00039B4B84442C0B84452CCB8445AD8B844B5
:101D00006AE4B84473F0B8447BFCB8448B08B94427
:101D10009314B944A420B944AC2CB944B438B944A0
:101D2000C544B944CD50B944D55CB944DD68B94423
:101D3000EE74B944F680B944FE8CB9440699B944AE
:101D400017A5B9441FB1B94427BDB9442FC9B94437
:101D500037D5B94448E1B94450EDB94458F9B944CC
:101D60006005BA446811BA44711DBA447929BA446D
:101D70008135BA449141BA449A4DBA44A259BA4401
:101D8000AA65BA44B271BA44BA7DBA44C389BA44A6
:101D9000CB95BA44D3A1BA44DBADBA44E3B9BA4453
:101DA000ECC5BA44F4D1BA44F4DDBA44FCE9BA440F
:101DB00004F6BA440C02BB44140EBB441D1ABB44C7
:101DC0002526BB442D32BB442D3EBB44354ABB4483
:101DD0003D56BB444662BB444E6EBB444E7ABB4448
:101DE0005686BB445E92BB44669EBB4466AABB4417
:101DF0006FB6BB4477C2BB447FCEBB447FDABB44E3
:101E000087E6BB448FF2BB448FFEBB44980ABC44B8
:101E10009816BC44A022BC44A82EBC44A83ABC449A
:101E2000B046BC44B052BC44B85EBC44B86ABC4482
:101E3000C176BC44C982BC44C98EBC44D19ABC445E
:101E4000D1A6BC44D9B2BC44D9BEBC44D9CABC4456
:101E5000E1D6BC44E1E2BC44E9EEBC44E9FABC444E
:101E6000E906BD44F212BD44F21EBD44FA2ABD4447
:101E7000FA36BD44FA42BD44024FBD44025BBD4444
:101E80000267BD440A73BD440A7FBD440A8BBD444A
:101E90000A97BD4412A3BD4412AFBD4412BBBD445A
:101EA00012C7BD4412D3BD441BDFBD441BEBBD4470
:101EB0001BF7BD441B03BE441B0FBE441B1BBE448B
:101EC0001B27BE442333BE44233FBE44234BBE44A2
:101ED0002357BE442363BE44236FBE44237BBE44CA
:101EE0002387BE442393BE44239FBE4423ABBE44FA
:101EF00023B7BE4423C3BE4423CFBE4423DBBE442A
:101F000023E7BE4423F3BE4423FFBE441B0BBF4460
:101F10001B17BF441B23BF441B2FBF441B3BBF44A5
:101F20001B47BF441B53BF44125FBF44126BBF44E7
:101F30001277BF441283BF44128FBF440A9BBF4431
:101F40000AA7BF440AB3BF440ABFBF4402CBBF4481
:101F500002D7BF4402E3BF44FAEEBF44FAFABF44DB
:101F6000FA06C044F212C044F21EC044F22AC04431
:101F7000E936C044E942C044E14EC044E15AC0449D
:101F8000D966C044D972C044D97EC044D18AC04405
:101F9000D196C044C9A2C044C9AEC044C1BAC0446D
:101FA000C1C6C044B8D2C044B0DEC044B0EAC044E8
:101FB000A8F6C044A802C144A00EC144A01AC1445E
:101FC0009826C1448F32C1448F3EC144874AC144E0
:101FD0007F56C1447F62C144776EC1446F7AC14469
:101FE0006686C1446692C1445E9EC14456AAC144FD
:101FF00056B6C1444EC2C14446CEC1443DDAC14486
:1020000035E6C14435F2C1442DFEC144250AC2441F
:102010001D16C2441422C2440C2EC244043AC244C7
:10202000FC45C244FC51C244F45DC244EC69C24464
:10203000E375C244DB81C244D38DC244CB99C24410
:10204000C3A5C244BAB1C244B2BDC244AAC9C244C3
:10205000A2D5C2449AE1C24491EDC24489F9C24476
:102060008105C3447111C344681DC3446029C3443E
:102070005835C3445041C344484DC3443F59C344F9
:102080002F65C3442771C3441F7DC3441789C344CC
:102090000E95C344FEA0C344F6ACC344EEB8C3449B
:1020A000E5C4C344D5D0C344CDDCC344C5E8C34470
:1020B000B4F4C344AC00C444A40CC4449318C44452
:1020C0008B24C4448330C444733CC4446A48C4442D
:1020D0005A54C4445260C4444A6CC4443978C44419
:1020E0003184C4442190C444199CC44408A8C44405
:1020F00000B4C444F0BFC444E7CBC444D7D7C444FD
:10210000CFE3C444BEEFC444B6FBC444A607C544F1
:102110009613C5448D1FC5447D2BC5446D37C544FA
:102120006443C544544FC5444C5BC5443B67C544F8
:102130002B73C5441B7FC544128BC5440297C5440D
:10214000F2A2C544E9AEC544D9BAC544C9C6C5441E
:10215000B8D2C544A8DEC544A0EAC5448FF6C5443C
:102160007F02C6446F0EC6445E1AC6444E26C6445D
:102170004632C644353EC644254AC6441456C64473
:102180000462C644F46DC644E379C644D385C644AC
:10219000C391C644B29DC644A2A9C64491B5C644E3
:1021A00081C1C64471CDC64460D9C64450E5C64419
:1021B0003FF1C6442FFDC6441F09C7440E15C7444E
:1021C000FE20C744EE2CC744DD38C744C544C7448D
:1021D000B450C744A45CC7449368C7448374C744DD
:1021E0007380C7445A8CC7444A98C74439A4C7442B
:1021F00029B0C74410BCC74400C8C744F0D3C74483
:10220000DFDFC744C7EBC744B6F7C744A603C844DB
:102210008D0FC8447D1BC8446D27C8445433C8443F
:10222000443FC844334BC8441B57C8440A63C8449E
:10223000F26EC844E17AC844C986C844B892C8441A
:10224000A09EC8448FAAC84477B6C84466C2C84492
:102250004ECEC8443DDAC84425E6C84414F2C8440A
:10226000FCFDC844EC09C944D315C944C321C94481
:10227000AA2DC9449139C9448145C9446851C9440A
:10228000505DC9443F69C9442775C9440E81C9449A
:10229000FE8CC944E598C944CDA4C944B4B0C9442E
:1022A000A4BCC9448BC8C94473D4C9445AE0C944C6
:1022B0004AECC94431F8C9441904CA440010CA445C
:1022C000E71BCA44CF27CA44BE33CA44A63FCA4408
:1022D0008D4BCA447557CA445C63CA44446FCA44B0
:1022E0002B7BCA441287CA44FA92CA44E19ECA446C
:1022F000C9AACA44B0B6CA4498C2CA447FCECA4426
:1023000066DACA444EE6CA4435F2CA441DFECA44DF
:10231000040ACB44EC15CB44D321CB44BA2DCB4497
:10232000A239CB448945CB446851CB44505DCB4462
:102330003769CB441F75CB440681CB44E58CCB4435
:10234000CD98CB44B4A4CB449CB0CB4483BCCB4409
:1023500062C8CB444AD4CB4431E0CB4410ECCB44EC
:10236000F8F7CB44DF03CC44C70FCC44A61BCC44C6
:102370008D27CC447533CC44543FCC443B4BCC44A8
:102380001B57CC440263CC44E96ECC44C97ACC449C
:10239000B086CC448F92CC44779ECC4456AACC4491
:1023A0003DB6CC441DC2CC4404CECC44E3D9CC448D
:1023B000CBE5CC44AAF1CC4491FDCC447109CD4489
:1023C0005015CD443721CD44172DCD44FE38CD4492
:1023D000DD44CD44BC50CD44A45CCD448368CD44A1
:1023E0006274CD444A80CD44298CCD440898CD44B4
:1023F000F0A3CD44CFAFCD44AEBBCD448DC7CD44CB
:1024000075D3CD4454DFCD4433EBCD4412F7CD44E6
:10241000F202CE44D90ECE44B81ACE449826CE4409
:102420007732CE44563ECE44354ACE441456CE443E
:10243000FC61CE44DB6DCE44BA79CE449A85CE445D
:102440007991CE44589DCE4437A9CE4417B5CE4499
:10245000F6C0CE44D5CCCE44B4D8CE4493E4CE44DA
:1024600073F0CE4452FCCE443108CF441014CF4414
:10247000F01FCF44C72BCF44A637CF448543CF446A
:10248000644FCF44445BCF442367CF440273CF44AF
:10249000D97ECF44B88ACF449896CF4477A2CF4410
:1024A00056AECF442DBACF440CC6CF44ECD1CF4466
:1024B000CBDDCF44A2E9CF4481F5CF446001D044C5
:1024C000370DD0441719D044F624D044CD30D04431
:1024D000AC3CD0448B48D0446254D0444260D04499
:1024E000196CD044F877D044D783D044AE8FD04411
:1024F0008D9BD04464A7D04444B3D0441BBFD04488
:10250000FACAD044D1D6D044B0E2D04487EED04409
:1025100066FAD0443D06D1441412D144F41DD1448E
:10252000CB29D144AA35D1448141D144584DD1441D
:102530003759D1440E65D144E570D144C57CD144AE
:102540009C88D1447394D14452A0D14429ACD14445
:1025500000B8D144D7C3D144B6CFD1448DDBD144E8
:1025600064E7D1443BF3D1441BFFD144F20AD24487
:10257000C916D244A022D244772ED2444E3AD24435
:102580002546D2440452D244DB5DD244B269D244DF
:102590008975D2446081D244378DD2440E99D24499
:1025A000E5A4D244BCB0D24493BCD2446AC8D2445D
:1025B00042D4D24419E0D244F0EBD244C7F7D2441B
:1025C0009E03D344750FD3444C1BD3442327D344D9
:1025D000FA32D344C93ED344A04AD3447756D344B5
:1025E0004E62D344256ED344FC79D344CB85D34487
:1025F000A291D344799DD34450A9D34427B5D34461
:10260000F6C0D344CDCCD344A4D8D3447BE4D34444
:102610004AF0D34421FCD344F807D444C713D4442C
:102620009E1FD444752BD4444437D4441B43D44414
:10263000F24ED444C15AD4449866D4446672D44409
:102640003D7ED4440C8AD444E395D444BAA1D44406
:1026500089ADD44460B9D4442FC5D44406D1D44400
:10266000D5DCD444ACE8D4447BF4D4444A00D5440B
:10267000210CD544F017D544C723D544962FD54413
:102680006D3BD5443B47D5440A53D544E15ED54420
:10269000B06AD5447F76D5445682D544258ED5443C
:1026A000F499D544C3A5D5449AB1D54468BDD54461
:1026B00037C9D5440ED5D544DDE0D544ACECD5447E
:1026C0007BF8D5444A04D6442110D644F01BD644A6
:1026D000BE27D6448D33D6445C3FD6442B4BD644DC
:1026E000FA56D644C962D644A06ED6446F7AD64410
:1026F0003D86D6440C92D644DB9DD644AAA9D64446
:1027000079B5D64448C1D64417CDD644E5D8D64489
:10271000B4E4D64483F0D64452FCD6442108D744CE
:10272000F013D744B61FD744852BD7445437D7442A
:102730002343D744F24ED744C15AD7448F66D74477
:102740005E72D744257ED744F489D744C395D744D5
:1027500091A1D74460ADD74427B9D744F6C4D74434
:10276000C5D0D74493DCD7445AE8D74429F4D7449A
:10277000F8FFD744BE0BD8448D17D8445C23D84407
:10278000232FD844F23AD844C146D8448752D8447B
:10279000565ED8441D6AD844EC75D844BA81D844F2
:1027A000818DD8445099D84417A5D844E5B0D84471
:1027B000ACBCD8447BC8D84442D4D84410E0D844F8
:1027C000D7EBD844A6F7D8446D03D944330FD94486
:1027D000021BD944C926D9449832D9445E3ED94413
:1027E000254AD944F455D944BA61D944816DD944B4
:1027F0005079D9441785D944DD90D944AC9CD9444B
:1028000073A8D94439B4D94400C0D944CFCBD944F2
:1028100096D7D9445CE3D94423EFD944F2FAD9449A
:10282000B806DA447F12DA44461EDA440C2ADA4447
:10283000D335DA44A241DA44684DDA442F59DA44F8
:10284000F664DA44BC70DA44837CDA444A88DA44B9
:102850001094DA44D79FDA449EABDA4464B7DA4482
:102860002BC3DA44F2CEDA44B8DADA447FE6DA444B
:1028700046F2DA440CFEDA44D309DB449A15DB4411
:102880006021DB44272DDB44EE38DB44AC44DB44E1
:102890007350DB44395CDB440068DB44C773DB44C2
:1028A0008D7FDB444C8BDB441297DB44D9A2DB44A5
:1028B000A0AEDB4466BADB4425C6DB44ECD1DB4486
:1028C000B2DDDB4471E9DB4437F5DB44FE00DC4478
:1028D000C50CDC448318DC444A24DC440830DC4466
:1028E000CF3BDC442DE9F8432DED048B82B004008E
:1028F00068460021016000200190DFF8C86A3500B9
:10290000002084F8400094F8340002280ADB6A466C
:10291000042194F83430DFF8B00A10EB830001F0A2
:1029200057F907E06A46042194F8340015EB80005B
:1029300001F04EF95FF00408E94601AF424649460E
:10294000380001F04FFADFF8847A0198B8420CD1D0
:10295000200000F065F984ED0E0A200000F0B7F8C1
:1029600014F1440080EC020A34E09FEDC38ADFEDED
:10297000C38A0021B0EE480AF0EE680A200000F099
:10298000D4F89FEDBF9AB0EE490A200000F07AF922
:10299000019704270DF10408E9463A0041464846EC
:1029A00001F020FA94F8340002280ADB6A46042178
:1029B00094F83430DFF8100A10EB830001F09AF934
:1029C00008E06A46042194F8340016EB80063000D3
:1029D00001F090F9002084F84C000020E063002012
:1029E0002065002060650020A065002084F8640058
:1029F000002084F86500002084F86600002084F838
:102A00006700002084F86800002084F86900002036
:102A1000E0660020206714F1740014F1440191EC89
:102A2000020A80EC020A0020E0670020C4F880005F
:102A30000020C4F884000020C4F8880014F18C0041
:102A400014F1440191EC020A80EC020A0020C4F85F
:102A500094000020C4F898000020C4F89C0014F1F1
:102A6000A00014F1440191EC020A80EC020A02B0C9
:102A7000BDEC048BBDE8F18380F83410704780F81A
:102A80004D10704770B50600706D01F01BFA002202
:102A9000DFF83C3901F028FA04000D0096F84D00EB
:102AA00001F010FA02000B002000290001F0EEFAFC
:102AB00004000D00B06B01F00DFC22002B0001F0B2
:102AC00013FA01F02BFCF06396ED0F0A70BDF8B518
:102AD00084B00400684600210022C0E9001294F886
:102AE000340002280ADB6A46082194F83430DFF803
:102AF000D80810EBC30001F06BF809E06A46082122
:102B000094F83430DFF8CC0810EBC30001F060F823
:102B100008256E4602AF2A003100380001F062F944
:102B200002A890EC020A05B0F0BD2DE9F0412DEDB0
:102B3000020A82B004000D00684600210022C0E9AC
:102B40000012DFF894683078062802DB63A001F0F9
:102B500042FE04219DED030A062002F0A4F830781D
:102B6000062803DBDFF8740801F035FE04219DED33
:102B7000020A062002F097F83078062803DBDFF817
:102B8000600801F028FE2800C0B200282DD194F87A
:102B90004000002829D114F1440002A991EC020A56
:102BA00080EC020A082602AFE846320039004046AF
:102BB00001F018F994F8340002280ADB6A4608216B
:102BC00094F83430DFF8000810EBC30001F092F8FD
:102BD00009E06A46082194F83430DFF8F80710EB72
:102BE000C30001F087F8012017E02800C0B20128D7
:102BF0000BD1012084F8670014F15C0002A991EC6C
:102C0000020A80EC020A012007E03078022803DB88
:102C1000DFF8D00701F0DFFD002004B0BDE8F0814F
:102C2000FEB5040068460021016094F834000228D3
:102C30000ADB6A46042194F83430DFF8AC0710EB65
:102C4000830000F0C5FF09E06A46042194F834309F
:102C5000DFF8980710EB830000F0BAFF04256E46FA
:102C600001AF2A003100380001F0BCF80198A063E0
:102C700094ED0E0AF7BD00000000484400004843F0
:102C80006F12833AF0B52DED010A82B00400684658
:102C9000002101600298A063042502AE6F462A005D
:102CA0003100380001F09EF894F8340002280ADB65
:102CB0006A46042194F83430DFF82C0710EB8300C7
:102CC00001F018F809E06A46042194F83430DFF87E
:102CD0001C0710EB830001F00DF8F7BD2020000069
:102CE00090F840007047002804D080F8641001225A
:102CF00080F865207047002802D0002180F8651018
:102D000070472DE9F8432DED028B04000D00B0EE65
:102D1000408A160021000FF2D96002F0BDF90028A8
:102D200001D10020E9E001212000FFF7DCFF18EECF
:102D3000100A01F0CFFA0022DFF8943601F0D4F83F
:102D400080468946A06B01F0C5FA02000B004046A0
:102D5000494601F09BF98046894694F84D0001F000
:102D6000B1F842464B4601F0BFF802F03DFB20654A
:102D7000012084F840000020E0630020606500200E
:102D8000A065002084F86700002084F86800002017
:102D900084F869000020E066002020670020E067DA
:102DA0000020C4F880000020C4F884000020C4F88B
:102DB00088000020C4F894000020C4F89800002087
:102DC000C4F89C00002084F866003000C0B20228DD
:102DD00018D114F1740014F1440191EC020A80EC52
:102DE000020A14F18C0014F1440191EC020A80EC07
:102DF000020A14F1A00014F1440191EC020A80ECE3
:102E0000020A1EE03000C0B203281AD114F15C009F
:102E100090EC020A14F1740080EC020A14F15C00D8
:102E200090EC020A14F18C0080EC020A14F15C00B0
:102E300090EC020A14F1A00080EC020A002084F851
:102E400067002900C9B2200002F03DFB94F84D1044
:102E50001420414300EE101AB8EEC00A200002F020
:102E600007FA02F0C5FB200002F006FB200002F08A
:102E7000A6F9DFF864753878042805DB94F8341077
:102E8000DFF8400C01F0A7FC3878042803DBDFF8FA
:102E9000380C01F0A0FC3878042806DB2A00D2B2F6
:102EA000216DDFF8280C01F096FC0321B0EE480AF2
:102EB000042001F0F8FE3878042803DBDFF8100C5A
:102EC00001F089FC042194ED1E0A042001F0EBFEC0
:102ED0003878042803DBDFF8040501F07CFC0421CA
:102EE00094ED1D0A042001F0DEFE3878042803DB8F
:102EF000DFF8E40B01F06FFC0120BDEC028BBDE8B4
:102F0000F2832DE970432DED048B060096F86400E2
:102F100002280CD01CD3042812D019D296ED270A0F
:102F2000B0EE408A96ED280AF0EE408A10E096ED69
:102F30001B0AB0EE408A96ED1D0AF0EE408A07E0CB
:102F400096ED210AB0EE408A96ED230AF0EE408A13
:102F5000BBEE040A38EE000A10EE100A01F0BAF9CE
:102F60000022DFF86C3400F0BFFF04000D0018EE03
:102F7000900A01F0AFF902000B002000290001F0D7
:102F800085F801F0CBF909EE100A18EE100A01F0ED
:102F9000A1F98046894618EE900A01F09BF90022BB
:102FA000DFF83C3B00F0A0FF04000D0019EE100A12
:102FB00001F090F922002B0000F096FF02000B00B8
:102FC0004046494602F024FB04000D0019EE100AA9
:102FD00001F080F922002B0000F086FF04000D00B4
:102FE00096F84D0000F06EFF22002B0000F07CFFF1
:102FF00002F0FAF9B065BDEC048BBDE8708338B51A
:10300000040094F86400022818D02BD3042828D098
:1030100028D204212000FFF766FED4F89C00C4F8F3
:103020008400D4F89C00C4F8940014F18C0014F1CE
:10303000A00191EC020A80EC020A15E004212000B4
:10304000FFF751FEE06EC4F88400E06EC4F894000F
:1030500014F18C0014F1740191EC020A80EC020A64
:1030600002E001E000201FE0022084F8660000205A
:1030700084F86800002084F869002000FFF741FF11
:10308000A06D2065D44D2878042805DB94F8341011
:10309000DFF8300A01F09FFB2878042803DBDFF813
:1030A000440A01F098FB012032BD70B506003000E3
:1030B00002F0B4F8300002F01EFA300002F0F2F92B
:1030C000300002F032F8002801D10020AAE0706D33
:1030D00000F0F8FE0022BE4B00F006FF04000D00D9
:1030E00096F84D0000F0EEFE02000B0020002900D3
:1030F00000F0CCFF04000D00B06B01F0EBF82200F3
:103100002B0000F0F1FE01F009F9F063B24C2078D9
:10311000052804DB716DDFF8D00901F05CFB207835
:10312000062807DBD6F88020D6F89810DFF8BC090F
:1031300001F051FB2078062803DBDFF8B40901F029
:103140004AFB042196ED210A062001F0ACFD20780F
:10315000062803DBDFF89C0901F03DFB0020306509
:103160000020B065002086F86500002086F8670022
:10317000002086F86800002086F869000020F066CC
:103180000020306716F1740016F1440191EC020A38
:1031900080EC020A0020F0670020C6F880000020C2
:1031A000C6F884000020C6F8880016F18C0016F1DD
:1031B000440191EC020A80EC020A0020C6F8940057
:1031C0000020C6F898000020C6F89C0016F1A00068
:1031D00016F1440191EC020A80EC020A20780428DE
:1031E00003DBDFF8140901F0F6FA2078042803DB8A
:1031F000DFF8080901F0EFFA042196ED0F0A042028
:1032000001F051FD2078042802DB6DA001F0E3FA03
:10321000002086F84000002086F86400002086F830
:103220006500012070BD70B52DED028B0600B0EE7B
:10323000408A3000FFF726FC96ED0F0AB4EE480AEC
:10324000F1EE10FA37D518EE100A01F043F800221B
:103250005F4B00F049FE04000D00B06B01F03AF83E
:1032600002000B002000290000F010FF04000D00F8
:1032700096F84D0000F026FE22002B0000F034FEF0
:1032800002F0B2F8716D401A3065534C2078052871
:1032900004DB316DDFF8680801F09DFA0421B0EE1F
:1032A000480A052001F0FFFC2078052806DB44A031
:1032B00001F091FA02E03000FFF7A1FEBDEC028BB5
:1032C00070BD012180F84C107047002180F84C102F
:1032D0007047FEB5040094F84C00012821D16846DF
:1032E00000210022002380E80E0094F834008DF8BD
:1032F0000000012514F166060DF101072A003100D6
:10330000380000F06FFD94F84C2094F8661094F8A3
:10331000340002F052FA022269464FF4074002F0EC
:103320005AF9002084F84C00F7BD38B504002A4D46
:103330002878072807DBA36DD4F88020216DDFF8FB
:10334000C40701F048FA2878072803DBDFF8B8073C
:1033500001F041FA042194ED1B0A072001F0A3FCBF
:103360002878072803DBDFF88C0701F034FA287887
:10337000072803DBDFF8940701F02DFA042194ED10
:10338000270A072001F08FFC2878072803DBDFF8E5
:10339000640701F020FA2878072803DBDFF87007BC
:1033A00001F019FA042194ED210A072001F07BFCB9
:1033B0002878072803DBDFF83C0701F00CFA31BD61
:1033C000206D6C0064000108F000010855AA55AAA0
:1033D0000000F03F6C000108510000202CC00308E1
:1033E0003CC00308F87D0308080101087C000108BF
:1033F00070B50600002E02D0306D002809D10020E3
:1034000086F864003000FFF750FE3000FFF761FFE0
:1034100056E396F86400002808D002282BD00CD37D
:10342000042800F03782C0F05D8149E33000FFF7E7
:103430003CFE3000FFF74DFF42E396F8650001289F
:1034400018D13000FFF757FCB3EE040A86ED1B0AD3
:1034500086ED1F0A02213000FFF745FCDFF8B406B5
:103460000078052803DBDFF8B00601F0B4F930007E
:1034700002F041F824E396F86500012805D13000F8
:10348000FFF739FC0020306770E096F867000128EC
:103490003CD1002086F86700DFF8784620780728BE
:1034A00003DBDFF8780601F096F996ED1D0AD6EDFC
:1034B000170AB4EE600AF1EE10FA09D0F06EF06768
:1034C000002030672078072802DBCFA001F083F9C5
:1034D00096ED180AD6ED1B0AB4EE600AF1EE10FA6A
:1034E0000CD5012086F86800002086F86900207855
:1034F000072803DBDFF8280601F06DF916F15C0000
:1035000090EC020A16F1740080EC020AD6F88000F2
:10351000401CC6F88000306F00F0DCFE04000D0097
:1035200096F84D0000EE100AB8EE400AD6ED1B0AE0
:1035300020EE200A10EE100A00F0CCFE02000B0074
:103540000020DFF8E01500F0A1FD22002B0002F0C2
:1035500051F900F0E3FE306796ED1D0AD6ED1C0A26
:1035600096ED1F1A00EE201A86ED1B1A96F84D00F4
:1035700000EE100AB8EE400AD6ED1B0A20EE200A33
:10358000300001F075FE300001F0AEFF706D401CA0
:103590007065306D401E30650020642801DA401CE3
:1035A000FBE7300001F0A7FF3000FFF7AAFCB06D89
:1035B000316D884224D3F06EC6F88400F06EC6F8F0
:1035C000940016F18C0016F1740191EC020A80EC63
:1035D000020A002086F86800002086F869000421AD
:1035E0003000FFF780FBDFF82C050078052803DBAF
:1035F000DFF8340501F0EFF83000FFF796FE70E0D9
:10360000B06D316D491E884221D1F06EC6F89C0024
:1036100016F1A00016F1740191EC020A80EC020A86
:10362000002086F86800002086F869000321300039
:10363000FFF759FBDFF8DC040078052803DBDFF82F
:10364000EC0401F0C8F83000FFF76FFE49E096ED9A
:103650001B0AD6ED1E0AB4EE600AF1EE10FA40DB4A
:1036600096F8680001281ED104213000FFF73BFBCB
:10367000F06EC6F88400F06EC6F8940016F18C0067
:1036800016F1740191EC020A80EC020ADFF884045E
:103690000078052803DBDFF8980401F09CF830007F
:1036A000FFF743FE1DE0F06EC6F89C0016F1A00087
:1036B00016F1740191EC020A80EC020A002086F8EF
:1036C000690003213000FFF70EFBDFF848040078A3
:1036D000052803DBDFF85C0401F07DF83000FFF71C
:1036E00024FEEDE196F86500012802D13000FFF7D5
:1036F00002FB96F8670001284CD1002086F867008D
:10370000DFF810442078072803DBDFF8100401F00D
:1037100062F896ED290AD6ED180AB4EE600AF1EEC9
:1037200010FA2CD096ED180AD6ED270AB4EE600AEE
:10373000F1EE10FA0DD5012086F86800002086F819
:103740006900207807281ADBDFF8D40301F043F87A
:1037500015E096ED270AD6ED180AB4EE600AF1EEF0
:1037600010FA0CD5012086F86900002086F8680060
:103770002078072803DBDFF8C00301F02CF816F1EE
:103780005C0090EC020A16F1A00080EC020A300006
:10379000FFF7B7FB300001F0A7FE706D401C7065AD
:1037A000306D401E30650020642801DA401CFBE7C4
:1037B000300001F0A0FEB06D316D884226D30421A7
:1037C0003000FFF790FAD6F89C00C6F88400D6F8CF
:1037D0009C00C6F8940016F18C0016F1A00191EC43
:1037E000020A80EC020A002086F86800002086F8B1
:1037F0006900C8480078052802DBD04800F0EBFFDC
:103800003000FFF792FD44E06163630096F86800C2
:1038100001281ED104213000FFF765FAD6F89C007C
:10382000C6F88400D6F89C00C6F8940016F18C0007
:1038300016F1A00191EC020A80EC020AB54800786A
:10384000052802DBBE4800F0C6FF3000FFF76DFD23
:103850001FE096F8690001281BD102213000FFF714
:1038600042FAD6F89C00F066D6F89C00F06716F194
:10387000740016F1A00191EC020A80EC020AA5483E
:103880000078052802DBAF4800F0A5FF3000FFF705
:103890004CFD15E196F86500012805D13000FFF7D1
:1038A0002AFA0020C6F8880096F8670001283CD163
:1038B000002086F86700974C2078072802DB97489D
:1038C00000F089FF96ED230AD6ED170AB4EE600AE0
:1038D000F1EE10FA0CD0D6F88400C6F8940000205F
:1038E000C6F888002078072802DB7AA000F073FF72
:1038F00096ED210AD6ED180AB4EE600AF1EE10FA40
:103900000BD5012086F86900002086F86800207831
:10391000072802DB8C4800F05EFF16F15C0090EC9B
:10392000020A16F18C0080EC020A96ED210ADFED06
:103930006B0AB4EE600AF1EE10FA48DBD6F8980094
:10394000401CC6F89800D6F8880000F0C3FC0400BC
:103950000D0096F84D0000EE100AB8EE400AD6EDC4
:10396000210A20EE200A10EE100A00F0B3FC02003B
:103970000B0000206B4900F089FB22002B0001F0B6
:1039800039FF00F0CBFCC6F8880096ED230AD6ED8F
:10399000220A96ED251A00EE601A86ED211AB3EE82
:1039A000040AD6ED210AF4EE400AF1EE10FA01D530
:1039B00086ED210A96F84D0000EE100AB8EE400A96
:1039C000D6ED210A20EE200A300001F051FC300033
:1039D00001F08AFD706D401C7065306D401E3065D1
:1039E0000020642801DA401CFBE7300001F083FD71
:1039F0003000FFF786FA306D002811D10021300029
:103A0000FFF771F943480078052802DB4F4800F0C2
:103A1000E2FE3000FFF749FB3000FFF75AFC4EE0B2
:103A2000B06D316D88424AD296F86800012826D1DF
:103A300096ED240AD6ED210AB4EE600AF1EE10FAF2
:103A40001DDB002086F8680003213000FFF74BF9EA
:103A5000D6F88400C6F89C0016F1A00016F18C017F
:103A600091EC020A80EC020A2A480078052802DB61
:103A7000374800F0B0FE3000FFF757FC1FE096F823
:103A8000690001281BD102213000FFF72CF9D6F87C
:103A90008400F066D6F88400F06716F1740016F121
:103AA0008C0191EC020A80EC020A1A480078052881
:103AB00002DB284800F08FFE3000FFF736FCFFE7FE
:103AC00070BD0000E4B70308FCB70308309B03088F
:103AD0004CC00308616363005CC303080100A0419C
:103AE0000000E03F04AB030824AB0308A4900308E4
:103AF00014B8030844C603082CB80308ECB1030843
:103B000080940308A085030844B803085CC0030838
:103B10006CC003085100002044AB03087CC00308BC
:103B20008CC003080000F03F248A0308648A03085D
:103B30005C8C0308DC90030868C30308A48A0308AC
:103B4000988C0308B494030874C30308509F0308B7
:103B5000E48A030814910308010000200200D2B295
:103B6000182A09DA954A0300DBB202EB8302526895
:103B7000914201D3401CF1E70200D2B2182A01DBC6
:103B800017221000C0B280B2704710B5040001F0D7
:103B900001FF002001F0ECFE01212000C0B201F085
:103BA0000EFF012001F0E4FE01F002FF10BD38B568
:103BB00004002000FFF7D0FF05008148290089B2EA
:103BC00030F81100C0B2FFF7E0FF31BD0088704748
:103BD000F8B504000D0016007A480078062803DBCB
:103BE0002100794800F0F7FD0027AF4206D22000FF
:103BF000FFF7ECFFF053A41CBF1CF6E7F1BD2DE965
:103C0000F84F04000D0016000927002000905FF017
:103C1000000BB4F1006F01D3E00712D5DFF8A481E7
:103C200098F80000022803DB2100684800F0D3FD6B
:103C300098F80000022802DB654800F0CCFD002067
:103C400056E0DFF8808198F80000062803DB2100A9
:103C50005E4800F0C0FD01F09DFE002001F088FEEE
:103C6000A14615EB040A5B48814524D2D14522D2F6
:103C70004846FFF7ABFF4FF6FF71884218D0484621
:103C8000FFF76AFF834601214D485A4692B230F849
:103C9000120001F094FE07003800C0B20928E5D0F8
:103CA00098F80000052802DB42A000F094FD02E035
:103CB00019F10209DAE73800C0B2092812D15445D7
:103CC00010D23188200001F0C2FE092807D098F8F0
:103CD0000000052802DB38A000F07DFD02E0A41CF6
:103CE000B61CECE7012001F043FE01F061FE01206B
:103CF000BDE8F28F2DE9F84F04000D0016002000FA
:103D0000FFF72AFF2D4980B251F820705FF0000BB9
:103D10005FF00008B4EB0709DFF8BCA052464FF48F
:103D2000C8713800FFF754FF19EB050040F29111FC
:103D3000884214D3DFF88CA09AF80000022806DB32
:103D40004FF4C8732A004946244800F044FD9AF80D
:103D50000000022802DB224800F03DFD27E05FF072
:103D6000000BAB4508D21BEB09001AF80000FF2836
:103D700002D11BF1010BF4E7AB4513D200208346BF
:103D8000AB4508D216F80B0019EB0B010AF801003D
:103D90001BF1010BF4E752464FF4C8713800FFF7EE
:103DA0002EFF04E0320029002000FFF728FFBDE8C5
:103DB000F18F00003100000032000000147C030885
:103DC0007097030851000020B8BB0308CCBB030860
:103DD00094A403080000FF1F986E0020409703087A
:103DE000A489030862B38B0708D0521E11F8013B67
:103DF00000F8013B00F024808B07F6D1830740F0E8
:103E0000208000BF103A07D330B4B1E83810103A20
:103E1000A0E83810F9D230BC530724BFB1E808102D
:103E2000A0E8081044BF51F8043B40F8043BD20717
:103E300024BF31F8022B20F8022B44BF0B7803700B
:103E40007047121F17D35B0009D151F8043B20F8CB
:103E5000023B1B0C121F20F8023BF6D20BE051F87C
:103E6000043B00F8013B1B0A20F8023B1B0C121F0D
:103E700000F8013BF3D238BF121D521E24BF11F8C7
:103E8000013B00F8013BF8D8704730B4002513E03F
:103E900050F8042BD30744BFA9F101039A18091F56
:103EA000042942F8045BFAD213468C0744BF1580FC
:103EB0009B1CC90748BF1D7050F8041B0029E7D19F
:103EC00030BC7047014648B1B0FA80F18840C91C47
:103ED000C1F58461090501EBD021400570470268F6
:103EE000531C036011707047B0B581EA030C0CF0ED
:103EF000004C40F2FF7515EA11541DBF15EA135727
:103F0000AC42AF4239E0E41923EA455343F480134D
:103F1000C90241F0004141EA505EC7021100A7FB0F
:103F2000020200284FF00000EEFB01204FF00001DC
:103F3000E3FB072118BF42F001024018002149416C
:103F4000E3FB0E01A4F580640F0302D2520040414E
:103F5000494154F101046CDD470872F1004250F10F
:103F6000000051EB0451A1F580115CBF41EA0C0146
:103F7000B0BD4CEA05510020B0BD05EA1357AC4274
:103F800014BFAF4241E050EA410E1CBF52EA430E5B
:103F900002E061460020B0BD24423C441BD15FEAF0
:103FA000070EF6D0090302BF01460020AEF1140E41
:103FB000B1FA81F7AEEB070401FA07FE0C37C7F13F
:103FC000200100FA07F7C8404EEA000E23EA4553E5
:103FD00043F48013A2E733F00043B3FA83F704BF3E
:103FE000B2FA82FE77440B3FE41BB7F1200E2FBFDD
:103FF00002FA0EF3BB40C7F1200E22FA0EFE38BFC4
:1040000043EA0E03BA40641C82E750EA410E14BF33
:1040100052EA430E6FF000014FF4001717EB430F05
:104020008ABF194617EB410FB5E74CEA055100204E
:10403000B0BDD4F10104B4F120070FDAC4F12007B8
:10404000520828BF42F0010210FA07F501FA07F7FB
:10405000E1BF2A43E0403843E1400FE0352C98DCD3
:10406000C7F1200452EA400220FA07F218BF42F0DA
:10407000010231FA07F0A1400A43002172F1004227
:1040800050F1000051EB0C01B0BD3F00F0B540F223
:10409000FF7581EA030C0CF0004C15EA11541DBFAA
:1040A00015EA1357AC42AF42E5E0BC41C1F313013E
:1040B000C3F31303801A994143F4801304D2641E9E
:1040C0004000494180185941C90241EA5051B1FBB1
:1040D000F3F603FB1611A2FB0675D7EBC020A9412E
:1040E00002D2761E80185941C90241EA5051B1FBF3
:1040F000F3FE03FB1E11A2FB0E75D7EBC020A941F6
:1041000003D2AEF1010E80185941890241EA905163
:10411000760546EA8E2EB1FBF3F603FB1611A2FBE1
:104120000675D7EB8020A94102D2761E801859412E
:10413000C90241EA50514EEA060EB1FBF3F603FB09
:104140001611A2FB0675D7EBC020A94102D2761E3C
:1041500080185941C90241EA5051B1FBF3F703FB02
:104160001711A2FB0735D3EBC020A94167F1000767
:104170000CBF004247F0010766F3D5274FEA1E3116
:10418000B80814F5806412DDBD0775F1004250EBEC
:104190000E5051EB045111F5801F5CBF41EA0C0138
:1041A000F0BD4CF07F6141F0E0410020F0BDBD0763
:1041B0006D0840EA0E5041F48011D4F10104B4F1CD
:1041C00020060ADAC4F120060200E04001FA06F3F4
:1041D000E1401843B24015430EE0342C13DCC6F125
:1041E000200445EA40056D0820FA06F2154321FA3D
:1041F00006F0A1400D43002175F1004250F100008E
:1042000051EB0C01F0BD00205FEA0C01F0BDCFB90D
:1042100092185B41B3FA83F704BFB2FA82F6BF1972
:104220000B3FB7F120062FBF02FA06F3BB40C7F1E0
:10423000200622FA06F638BF3343BA401CB1E4190F
:10424000641E33E77F4231F00041B1FA81F404BFCC
:10425000B0FA80F6A4190B3CB4F120062FBF00FA87
:1042600006F1A140C4F1200620FA06F638BF31431A
:10427000A0403C1B1AE7AC421ABF05EA1357AF42F5
:1042800012E050EA41061CBF52EA4306BFE750EA7B
:104290004107304661461CBF41EA0551F0BD52EA74
:1042A000430C08BFC143F0BD00204FF4001616EBCD
:1042B000410F98BF16EB430F08BF16EB410F24BF09
:1042C000C14305E016EB430F0CBF61464CEA0551B4
:1042D000F0BD6800C0F3C75181B1FF2906D0C110FD
:1042E000400721F0E04101F16051704741020CBFED
:1042F00040F4E0016FF000410020704700F0004101
:1043000000020AD0B0FA80FC00FA0CF001F1605112
:10431000A1EB0C5101EBD0214005704701F00042A8
:104320008B1AA3F16051B1F5801F0ADBB1F17F6FE9
:104330001FD242EAC102C10071F1004142EB50704C
:1043400070470B15C3F10903212B10D2890241EAF2
:10435000905180020128494141F0004121FA03F0C7
:10436000C3F12003994071F10041504170471000A2
:1043700070476FF0000013EB103F5CBF000E42EA85
:10438000C050704710B501F0C7FB01F0B7FC00F05A
:10439000B0FB0020DFF8AC1708700020DFF8A8178A
:1043A00008700020DFF8A4170860DFF8A4170020C9
:1043B000087008780A280ADA0022DFF898370C78A3
:1043C000802044431A550878401C0870F1E700200B
:1043D00008700878DFF88017087001F033FD10BD11
:1043E0002DE9F14300249DF8000003281FD0042884
:1043F0001DD008280ED00A2824D00D2822D01B2832
:1044000047D0412845D0422843D05B2841D07F285F
:1044100040F0C380DFF834070168012906DB01683A
:10442000491E0160032195A001F0A9FCC6E000200F
:10443000DFF8181708600220DFF80817087001205D
:104440000400BBE0DFF8140700780D2803D19DF8C5
:1044500000000A281CD0DFF8F4562E68DFF8007739
:10446000DFF80087C146320039004846FFF7BAFC42
:104470000020296808F80100002028600120DFF8EA
:10448000C4160870012004000121A6A001F077FCE9
:1044900094E0DFF8B4562878002803D0022824D00E
:1044A00019D379E09DF800001B2802D10120287063
:1044B00010E0DFF8980601687F290BDA01684A1CD2
:1044C00002609DF80000DFF89826505401216846EC
:1044D00001F055FC60E09DF800005B2802D102204D
:1044E000287001E00020287056E09DF80000412867
:1044F0000AD1DFF86406017809310A2291FBF2F350
:1045000002FB131101700DE09DF80000422809D153
:10451000DFF844060178491C0A2291FBF2F302FB02
:10452000131101709DF80000412803D09DF8000090
:1045300042282FD1DFF814763868411E39600028F0
:1045400004D003214DA001F01AFCF3E7DFF8046664
:10455000DFF8048698F800108020414306EB010044
:1045600001F0B8FC3860396898F800208020424398
:1045700006EB020001F003FC3F6898F80010C9B296
:10458000802041430E44DFF8D8853A003100404690
:10459000FFF728FC0020287010E0DFF8B005016864
:1045A0007F290BDA01684A1C02609DF80000DFF8E1
:1045B000B02550540121684601F0E1FB9DF8000050
:1045C000DFF8981508702000C0B2BDE8F28338B556
:1045D000DFF87015087800284DD00878012843D1FD
:1045E00000200870DFF87C55280000F049F828000A
:1045F00000F09AF8040014F1030F05D1DFF8680504
:1046000000F0E9F8002037E014F1010F0DD100208F
:104610000400285D002801D1641CFAE705EB0401C1
:10462000DFF8480500F0D7F816E014F1020F04D1C6
:10463000DFF83C0500F0CFF80EE0102C01D100208F
:104640001AE0142C01D1142016E0002C04D0210013
:10465000DFF8200500F0BFF832A000F0BCF8DFF86A
:10466000080500F0B8F806E00878022803D1002019
:104670000870142000E0002032BD0000082008006F
:1046800030B401000022885C002807D0885C202814
:1046900002D0885C092801D1521CF4E71144087843
:1046A00000283CD000200200802A0FD2885C00281D
:1046B0000CD0DFF8A034DFF898040478802044435D
:1046C00003EB04008B5C8354521CEDE7802A0BD271
:1046D000DFF88034DFF8780404788020444303EB6B
:1046E0000400002383540CE0DFF86834DFF8600432
:1046F00004788020444303EB04001044002300F8B6
:10470000013CDFF84C0403785B1C0A2493FBF4F5AE
:1047100004FB153303700078DFF83C34187030BCAC
:10472000704700000A0000002DE9F843060001244C
:1047300000200C2806DA0021DFF83C2442F8201083
:10474000401CF6E700253700387800281BD0387861
:10475000202802D03878092804D1002038700120A0
:1047600004000EE0002C0CD00B2D07DADFF8080453
:1047700040F825706D1C0020040002E07FF001006D
:1047800021E07F1CE0E7002D1BD0DFF8F083D8F894
:104790000000002812D0DFF8E093D8F80010D9F814
:1047A000000001F0B3FB002805D149462800D8F8E5
:1047B0000420904707E018F10C08E8E75FF0FF30AD
:1047C00001E07FF00200BDE8F28380B5DFF89803D6
:1047D00000F001F801BD0EB42DE9F04F2DED048B72
:1047E00088B0804615AE98F80000002800F07A8165
:1047F0000020050018F80500252805D018F8050048
:10480000002801D06D1CF5E72900404601F0B7FAF9
:10481000A84498F800002528E5D118F101080020E7
:10482000040020208DF80000404610F101080078B7
:10483000253800F04C810B38092815D9283800F0AC
:10484000EF800B3820D0401E26D0801E37D00A388B
:1048500000F0E680C01E00F0BD80801E00F0D68013
:10486000C01E00F0DD8038E118F8010C302804D1BA
:10487000002C02D130208DF800000A20444318F8A3
:10488000010C30380419CFE73068361D0190012142
:1048900001A801F074FAA6E73068361D01900020E7
:1048A00007000198002805D5019840420190012099
:1048B000834601E0002083460A208246B9E0F61DC7
:1048C00036F0070696ED000B0836B0EE408AF0EEA3
:1048D000608A51EC180B0022002301F03DFB08D246
:1048E0000120834651EC180B91F0004141EC180B6C
:1048F00001E00020834651EC180B01F045FB0190CC
:104900000198FFF7DFFA02000B0051EC180B00F0E2
:104910007FFE41EC190B0A20824601200500012090
:10492000814601980AFB05F188420AD30AFB05F08B
:10493000B0FBFAF0A84204D10AFB05F519F1010910
:10494000EFE700200700BBF1010F03D12D2003A9E1
:10495000C8557F1C002D0FD00198B0FBF5F0B0FBBF
:10496000FAF10AFB110086490968085C03A9C855D9
:104970007F1CB5FBFAF5EDE751EC190B0022002383
:1049800001F020FB03D82E2003A9C8557F1CB9F1E4
:10499000070F1AD25046FFF795FA53EC192BFFF781
:1049A000A3FA41EC190B51EC190B01F0EDFA0A21B5
:1049B00090FBF1F201FB120071490968085C03A940
:1049C000C8557F1C19F10109E1E7390003A801F07E
:1049D000D6F908E73068361D0290002005000298DD
:1049E000405D002801D06D1CF9E72900029801F014
:1049F000C6F9A54209D2641B2000441E002804D039
:104A000001214EA001F0BBF9F6E7ECE63068361D57
:104A10000190002007000A2082460020834608E01B
:104A20003068361D019000200700102082460020CB
:104A300083460120050001980AFB05F1884209D34D
:104A40000AFB05F0B0FBFAF0A84203D10AFB05F51A
:104A5000641EF0E7BBF1000F00D0641EBBF1000F35
:104A600009D09DF80000302805D12D2003A9C85594
:104A70007F1C00208346022C0BD3102C09D2641E0D
:104A8000002C06D09DF8000003A9C8557F1C641EA9
:104A9000F6E7BBF1000F03D02D2003A9C8557F1CFA
:104AA000002D0FD00198B0FBF5F0B0FBFAF10AFB36
:104AB000110033490968085C03A9C8557F1CB5FB80
:104AC000FAF5EDE7390003A801F059F98BE6012169
:104AD000B8F1010001F053F985E60521294801F0FC
:104AE0004EF980E608B0BDEC048BBDE8F00F5DF830
:104AF00010FBE0B52448FFF76EFE24492448FFF779
:104B00006AFE01F077FA01909DF8070000909DF889
:104B100006309DF805209DF804101E48FFF75BFE47
:104B20001D48FFF758FE1D491D48FFF754FE04A01D
:104B3000FFF751FEFFF749FE07BD0000200000000F
:104B40000A0A0000E27B0020E47B0020987A002023
:104B5000E57B002054600020E67B0020E37B002002
:104B600070750020F07500206CC5030834B603088A
:104B7000549A030808A30308CC7800203877030868
:104B8000E8C6030874C50308C8BA03084CB603088E
:104B900014AF030864B6030864A9030830AF030820
:104BA0007CC5030810B4020052B2002A09D50A01DC
:104BB000CD4B040064B214F00F04234403F8042C1A
:104BC00004E00A01C94B040064B21A5510BC7047D6
:104BD000BFF34F8FC6490A6812F4E062C54802432A
:104BE0000A60BFF34F8F00BFFDE710B50400601EE1
:104BF000B0F1807F01D301200EE0601EBE49086045
:104C00000F215FF0FF30FFF7CDFF0020BB490860A8
:104C10000720BB490860002010BDF8B55FF40031E3
:104C20005FF0006001F02DFA4FF4407001F0F0F9F0
:104C3000684601F03BFA01984FF47A71B0FBF1F04D
:104C4000FFF7D3FF0F215FF0FF30FFF7ABFF05B099
:104C500000BD10B504000120B4FBF0F001F0D3FB5F
:104C600010BD10B4002181420AD2002213009BB271
:104C700047F23054A34201DA521CF7E7491CF2E72D
:104C800010BC704700220100481E002906D02021D8
:104C90000A0011004A1E0029FBD1F4E7704780B5D5
:104CA000FFF796FF01BD70B52DED048B0400B0EE4B
:104CB000408A0D00934800782100C9B288422DD364
:104CC000B5EE408AF1EE10FA06D583A0FFF783FD1A
:104CD000BFEE000A28EE008AFCEEC88A18EE901A91
:104CE0007EA0FFF778FDB8EE680A38EE409A0026FD
:104CF0002800C0B2864211DAB2EE040A29EE009A08
:104D0000BCEEC90A10EE101A0A20B1FBF0F200FB4B
:104D1000121173A0FFF75FFD761CE9E7BDEC048B71
:104D200070BD7FB50C24002501AE2A0021003000A3
:104D300002F0D6F90121202001F080FA4CF24F3028
:104D400002900020ADF806000020ADF80C004AF6F5
:104D5000C770ADF804006C4E01A9300002F0F4F900
:104D60000121300002F052FA01220121300002F04C
:104D700041FA37208DF8000001208DF8030005204E
:104D80008DF8010000208DF80200684601F045F919
:104D90000121300002F011FA7FBD80B55A4802F0BF
:104DA0000AFA0100594800884CF2503202FB001008
:104DB00002BD10B5544C0121200002F02CFA00284D
:104DC00007D00121200002F03DFA50480188491C1B
:104DD000018010BD30B5A9B007A84D49D1E9002325
:104DE000C0E9002301F0C4FC05900598112804D304
:104DF00005994848FFF7EFFC6AE0474D06AA059978
:104E0000280001F0B8FC05904448FFF7E4FC069840
:104E100000285AD00020049004980599884254D262
:104E200004984001284480696421A1FB0001069A8E
:104E3000002302F00DFA0400002C1ED00499049AFD
:104E4000049B0498039449012944898B02915101E0
:104E5000294409690191590129448968009107A9E8
:104E600040012844007B0B5C0498400128444268C0
:104E70002B4909A802F004FB1CE00499049A049B46
:104E8000049849012944898B0291510129440969F7
:104E90000191590129448968009107A940012844DA
:104EA000007B0B5C04984001284442681D4909A816
:104EB00002F0E6FA09A90BA0FFF78DFC0A2001F029
:104EC000A2FA0498401C0490A6E71748FFF783FC59
:104ED00029B030BD000000002D00000025642E0028
:104EE0002564000025730A0018ED00E000E400E0EE
:104EF0000CED00E00400FA0514E000E018E000E02A
:104F000010E000E05100002000140040DA7B002097
:104F10005CC60308DCA40308986A0020888D030897
:104F200004B3030820B30308C48D030880B5002030
:104F30008DF8020001208DF803001C208DF8000080
:104F400009208DF80100684601F067F81E208DF8F1
:104F5000000009208DF80100684601F05EF82B2062
:104F60008DF8000009208DF80100684601F055F821
:104F70002C208DF8000009208DF80100684601F012
:104F80004CF801BD80B50121012001F057F9012144
:104F9000042001F053F90121402001F04FF90121D3
:104FA000802001F04BF901BDFEB50C2400256E46B2
:104FB0002A002100300002F093F80020ADF808002C
:104FC0000020ADF8020040F2E73601965920ADF816
:104FD000000069465FF0804002F0B6F801215FF002
:104FE000804002F013F9012201215FF0804002F0BD
:104FF00001F900215FF0804002F0DFF801965920AE
:10500000ADF80000DFF870736946380002F09CF8D4
:105010000121380002F0FAF801220121380002F0E3
:10502000E9F80021380002F0C8F801965920ADF8DF
:105030000000DFF848736946380002F085F8012166
:10504000380002F0E3F801220121380002F0D2F822
:105050000021380002F0B1F801965920ADF80000A7
:10506000DFF81C636946300002F06EF80121300061
:1050700002F0CCF801220121300002F0BBF800213F
:10508000300002F09AF8F7BD80B5FFF74FFFFFF749
:1050900079FFFFF789FF01BD38B504000D00DFF887
:1050A000E412086800280DD10C60DFF8DC0205600E
:1050B000DFF8D8020078072835DBDFF8D402FFF7E5
:1050C0008AFB30E0DFF8CC12086800280BD10C60B6
:1050D000DFF8C4020560AD480078072823DBAF483D
:1050E000FFF779FB1FE0AE49086800280AD10C6081
:1050F000AC480560A5480078072814DBAA48FFF7EC
:105100006AFB10E0A949086800280AD10C60A84889
:1051100005609E480078072805DBA648FFF75BFB83
:1051200001E0002000E0012032BD10B504009648E7
:1051300001688C420CD10021924A1160002101606B
:1051400092480078072838DB9B48FFF744FB34E09F
:10515000914801688C420CD100218E4A11600021D7
:1051600001608A480078072827DB9448FFF733FB63
:1051700023E08C4801688C420CD10021884A1160E0
:105180000021016081480078072816DB8C48FFF772
:1051900022FB12E0864801688C420CD10021834A30
:1051A00011600021016079480078072805DB8548F7
:1051B000FFF711FB01E0002000E0012010BD38B531
:1051C000040071480068844203D15FF0804005000C
:1051D00013E071480068844202D1674805000CE082
:1051E00070480068844202D16448050005E07048B8
:1051F0000068844201D16248050000206862298A63
:105200004FF6FE700140298201220121280001F0A1
:10521000F1FF288850F00100288031BD38B5040026
:1052200059480068844203D15FF08040050013E0D4
:1052300059480068844202D14F4805000CE05948A3
:105240000068844202D14D48050005E058480068D6
:10525000844201D14A48050000220121280001F0C2
:10526000C9FF29884FF6FE700140298031BD00003A
:1052700038B52DED028B0400B0EE408A424800683C
:10528000844203D15FF08040050013E0424800688B
:10529000844202D1384805000CE04248006884424C
:1052A00002D13648050005E041480068844201D13A
:1052B000334805009FED2F0A80EE080ABDEEC00AB4
:1052C00010EE101A89B2491E280001F072FFBDECE1
:1052D000028B31BD80B53C480088C0070DD53B49E5
:1052E0000888C00709D50A884FF6FE7002400A8078
:1052F0002548006823490968884701BD80B53448BE
:105300000088C0070DD533490888C00709D50A8829
:105310004FF6FE7002400A801F4800681D49096868
:10532000884701BD80B52C480088C0070DD52B49A2
:105330000888C00709D50A884FF6FE7002400A8027
:105340001848006816490968884701BD80B5244897
:105350000088C0070DD523490888C00709D50A88E9
:105360004FF6FE7002400A80114800680F49096834
:10537000884701BD0024744900080040001800401F
:10538000001C0040287B0020387B002051000020BA
:1053900008B203082C7B00203C7B002024B20308C9
:1053A000307B0020407B002040B20308347B00208B
:1053B000447B00205CB2030878B2030894B203086F
:1053C000B0B20308CCB203080C000040100000404B
:1053D0000C080040100800400C1800401018004055
:1053E0000C1C0040101C0040400D491840EA812070
:1053F0000CD2490DA1F58061491C40F0004005DB4D
:10540000D1F11F0154BFC840C0177047002070473A
:105410001CB504000121206A62691043A268104390
:10542000E26A104300F0FAFE02208DF80500012028
:105430008DF8040000208DF8060001208DF807008B
:10544000A08800906946206802F03AF8A08B00908E
:105450006946A06902F034F8208A00906946E06845
:1054600002F02EF8208D00906946606A02F028F85C
:10547000002084F8300013BD10B504002068002817
:1054800003D0A188206802F09CF8606A002806D04A
:105490000348FFF7A0F9218D606A02F092F810BD71
:1054A0004CC6030810B504002068002803D0A1886A
:1054B000206802F088F8606A002803D0218D606AB5
:1054C00002F081F810BD38B504000D002800C0B20C
:1054D000002804D1218AE06802F073F803E0218AF1
:1054E000E06802F070F831BD10B50400A18BA0692E
:1054F00002F067F810BD10B50400A18BA06902F09E
:1055000062F810BD2DE9FC4102F090F802F096F827
:1055100002F03AF90124394D280002F038FB384EE8
:105520002900300002F058FE364F380003F0FBF837
:10553000DFF8D480404603F06DFA2100C9B228009C
:1055400003F092FD3100280003F090FD04212800B3
:1055500003F08EFD2200D2B22900300003F08AFD54
:105560003A000121300003F089FD28480090032310
:1055700001220121380003F0FFF8424600213800E3
:1055800003F030F900967FF0FF030022002138007D
:1055900003F01AF903F07AFD060003F075FD3300FD
:1055A00002003900404603F066FA404603F076FDFB
:1055B000280002F0F9FA0120BDE8F68170B5040078
:1055C0000D00160033009BB22A00210089B20E485C
:1055D00003F0AFFA70BD70B504000D001600330083
:1055E0009BB22A00210089B2074803F0C7FA70BDB8
:1055F00080B5054803F0E6FA01BD000054650020BF
:10560000747200205C78002090680020FF0000FF8A
:1056100070B44FF0004591EA030F40F1F3806B4006
:10562000841A71EB030603D2001BB14112197341B6
:105630004FF4001C1CEB410F34BF7CEB430442E0F1
:105640000C0DA4EB1356352E4FDC45EAC323DB0AC1
:1056500045EAC121C912B6F120050DDD63FA05F650
:10566000EB4086EA0305124218BF45F00105C01859
:1056700051F100010CD213E062FA06F5F2405540F8
:10568000F3415A40B340F3405A408018594107D380
:1056900049085FEA30005FEA350528BF45F001059B
:1056A00001F58011420875F1004250F1000041EB14
:1056B00004514E0016F5001F70BC38BF7047002023
:1056C000090D090570471CEB410F10D252EA430641
:1056D0000BD0BCEB410F05D80C0DAB43661E342E2E
:1056E000B6DD02E0AB438018594170BC704770BC16
:1056F000704708007FB5062400253B4E2A00210094
:10570000300001F0EDFC03220021012003F04AFDEE
:10571000364908600020039000200290002001908C
:10572000062000900023802231490FF2090000F08A
:10573000C1FD7FBD2DE9FE4F040068460021002217
:10574000002380E80E000A20FFF783FA0025022DCF
:10575000F9DA254E032000FB05F03044407801289B
:1057600029D10A275FF00008E94642463900484639
:1057700001F0B6FC032000FB05F0305C8DF8000062
:105780005FF00109032000FB05F0304410F1020A2C
:105790000DF1010B4A4651465846FEF723FB022203
:1057A00069464FF40740FFF709FF0020032101FB82
:1057B00005F1314448706D1CC9E730B40A4C05004E
:1057C000EDB203235D4360550500EDB203235D4355
:1057D00004EB050399700500EDB203235D4304EB70
:1057E00005035A7030BC70477C7A0020247B00206F
:1057F00080C3030870B44FF0004591EA030F7FF5B2
:105800000FAF6B40841A71EB030604D26E40001B8D
:10581000B141121973414FF4001C1CEB410F34BF0E
:105820007CEB430683E00C0DA4EB1356362E00F3FD
:105830007C80012E45EAC32341DC43EA525312BF68
:10584000D20292025B08240545EAC12141EA505187
:10585000D2EBC020994125D407D1B0FA80F610FAD6
:1058600006F162D00020203608E0B1FA81F6B1409E
:10587000C6F1200220FA02F21143B0404FEAF4745C
:10588000B4EB465434F001064FEA74040AD8D6F556
:105890000016760D04F00044F04061FA06F2504024
:1058A000F1404840C00A40EA415021F0004128BF81
:1058B0005FEA500550F1000044EBD12135E0DB0AEE
:1058C00045EAC121C90AB6F120050EDD42EA0242CD
:1058D000120CC5F1200603FA06F6EB4042EA060573
:1058E0006D42984161F100010DE062FA06F5F24067
:1058F000554063FA06FC82EA0C02F3405A406D42BE
:10590000904161EB030111F4801F05D1641E620513
:1059100002D06D004041494121F48011430875F1E6
:10592000004350F1000041EB045170BC70471CEB88
:10593000410F15D223F0004352EA43060BD04FEA41
:105940004C0CBCEB410F04D80C0D661E342EB7DD99
:10595000EBE7801A994150EA410608BF0021E4E7CD
:1059600008BF1CEB430F28BF6FF00001DDE700000C
:105970000100C9B2002906D0DFF858110A6852F4B4
:1059800080620A6005E0DFF84C110A6832F4806238
:105990000A607047DFF840010068002807D5DFF88B
:1059A0003C01DFF83C110160DFF8381101607047FD
:1059B000DFF82401016851F00041016070472DE9D2
:1059C000F04104000D00002009262900C9B2002979
:1059D00001D100270FE02900C9B2012902D14FF4FB
:1059E000807708E02900C9B2022902D14FF400777C
:1059F00001E04FF4407700F079F880464046C0B2AD
:105A0000092820D1DFF8D060306830F44070306071
:105A1000306838433060306830F0F800306031680A
:105A200054F0020001433160306850F4803030603F
:105A300000F05CF88046306830F00200306030687A
:105A400030F0F80030604046C0B2BDE8F081F8B5F3
:105A500004000D00092700F049F806003000C0B22C
:105A6000092814D11C4F386830F440703860386809
:105A700050F480703860386850F00100386025803C
:105A800000F034F806003868400840003860300004
:105A9000C0B2F2BD092114480268D20301D5012029
:105AA00015E00268D20601D5062010E00268D20592
:105AB00001D502200BE0026812F0E00F01D00720B0
:105AC00005E00068800701D5082000E00920C0B289
:105AD00070470000003C0240103C0240043C024081
